{
  "contractName": "Attendance",
  "abi": [
    {
      "inputs": [],
      "stateMutability": "nonpayable",
      "type": "constructor"
    },
    {
      "anonymous": false,
      "inputs": [
        {
          "indexed": false,
          "internalType": "string",
          "name": "srn",
          "type": "string"
        },
        {
          "indexed": false,
          "internalType": "string",
          "name": "subject",
          "type": "string"
        },
        {
          "indexed": false,
          "internalType": "uint256",
          "name": "timestamp",
          "type": "uint256"
        }
      ],
      "name": "AttendanceMarked",
      "type": "event"
    },
    {
      "anonymous": false,
      "inputs": [
        {
          "indexed": false,
          "internalType": "string",
          "name": "srn",
          "type": "string"
        },
        {
          "indexed": false,
          "internalType": "string",
          "name": "name",
          "type": "string"
        }
      ],
      "name": "StudentRegistered",
      "type": "event"
    },
    {
      "inputs": [],
      "name": "MIN_GAP",
      "outputs": [
        {
          "internalType": "uint256",
          "name": "",
          "type": "uint256"
        }
      ],
      "stateMutability": "view",
      "type": "function"
    },
    {
      "inputs": [
        {
          "internalType": "uint256",
          "name": "",
          "type": "uint256"
        }
      ],
      "name": "allSRNs",
      "outputs": [
        {
          "internalType": "string",
          "name": "",
          "type": "string"
        }
      ],
      "stateMutability": "view",
      "type": "function"
    },
    {
      "inputs": [
        {
          "internalType": "string",
          "name": "",
          "type": "string"
        },
        {
          "internalType": "string",
          "name": "",
          "type": "string"
        },
        {
          "internalType": "string",
          "name": "",
          "type": "string"
        }
      ],
      "name": "alreadyMarked",
      "outputs": [
        {
          "internalType": "bool",
          "name": "",
          "type": "bool"
        }
      ],
      "stateMutability": "view",
      "type": "function"
    },
    {
      "inputs": [
        {
          "internalType": "string",
          "name": "",
          "type": "string"
        },
        {
          "internalType": "uint256",
          "name": "",
          "type": "uint256"
        }
      ],
      "name": "attendanceRecords",
      "outputs": [
        {
          "internalType": "string",
          "name": "srn",
          "type": "string"
        },
        {
          "internalType": "string",
          "name": "subject",
          "type": "string"
        },
        {
          "internalType": "uint256",
          "name": "timestamp",
          "type": "uint256"
        },
        {
          "internalType": "bool",
          "name": "present",
          "type": "bool"
        },
        {
          "internalType": "string",
          "name": "locationHash",
          "type": "string"
        }
      ],
      "stateMutability": "view",
      "type": "function"
    },
    {
      "inputs": [
        {
          "internalType": "string",
          "name": "",
          "type": "string"
        }
      ],
      "name": "lastMarkedTime",
      "outputs": [
        {
          "internalType": "uint256",
          "name": "",
          "type": "uint256"
        }
      ],
      "stateMutability": "view",
      "type": "function"
    },
    {
      "inputs": [],
      "name": "owner",
      "outputs": [
        {
          "internalType": "address",
          "name": "",
          "type": "address"
        }
      ],
      "stateMutability": "view",
      "type": "function"
    },
    {
      "inputs": [
        {
          "internalType": "string",
          "name": "",
          "type": "string"
        }
      ],
      "name": "students",
      "outputs": [
        {
          "internalType": "string",
          "name": "name",
          "type": "string"
        },
        {
          "internalType": "string",
          "name": "srn",
          "type": "string"
        },
        {
          "internalType": "bool",
          "name": "registered",
          "type": "bool"
        }
      ],
      "stateMutability": "view",
      "type": "function"
    },
    {
      "inputs": [
        {
          "internalType": "string",
          "name": "_srn",
          "type": "string"
        },
        {
          "internalType": "string",
          "name": "_name",
          "type": "string"
        }
      ],
      "name": "registerStudent",
      "outputs": [],
      "stateMutability": "nonpayable",
      "type": "function"
    },
    {
      "inputs": [
        {
          "internalType": "string",
          "name": "_srn",
          "type": "string"
        },
        {
          "internalType": "string",
          "name": "_subject",
          "type": "string"
        },
        {
          "internalType": "string",
          "name": "_date",
          "type": "string"
        },
        {
          "internalType": "string",
          "name": "_locationHash",
          "type": "string"
        }
      ],
      "name": "markAttendance",
      "outputs": [],
      "stateMutability": "nonpayable",
      "type": "function"
    },
    {
      "inputs": [
        {
          "internalType": "string",
          "name": "_srn",
          "type": "string"
        },
        {
          "internalType": "string",
          "name": "_subject",
          "type": "string"
        },
        {
          "internalType": "string",
          "name": "_date",
          "type": "string"
        }
      ],
      "name": "hasMarkedToday",
      "outputs": [
        {
          "internalType": "bool",
          "name": "",
          "type": "bool"
        }
      ],
      "stateMutability": "view",
      "type": "function"
    },
    {
      "inputs": [
        {
          "internalType": "string",
          "name": "_srn",
          "type": "string"
        }
      ],
      "name": "timeUntilNextMark",
      "outputs": [
        {
          "internalType": "uint256",
          "name": "",
          "type": "uint256"
        }
      ],
      "stateMutability": "view",
      "type": "function"
    },
    {
      "inputs": [
        {
          "internalType": "string",
          "name": "_srn",
          "type": "string"
        },
        {
          "internalType": "string",
          "name": "_subject",
          "type": "string"
        }
      ],
      "name": "getAttendanceCount",
      "outputs": [
        {
          "internalType": "uint256",
          "name": "",
          "type": "uint256"
        }
      ],
      "stateMutability": "view",
      "type": "function"
    },
    {
      "inputs": [
        {
          "internalType": "string",
          "name": "_srn",
          "type": "string"
        }
      ],
      "name": "getStudentRecords",
      "outputs": [
        {
          "components": [
            {
              "internalType": "string",
              "name": "srn",
              "type": "string"
            },
            {
              "internalType": "string",
              "name": "subject",
              "type": "string"
            },
            {
              "internalType": "uint256",
              "name": "timestamp",
              "type": "uint256"
            },
            {
              "internalType": "bool",
              "name": "present",
              "type": "bool"
            },
            {
              "internalType": "string",
              "name": "locationHash",
              "type": "string"
            }
          ],
          "internalType": "struct Attendance.AttendanceRecord[]",
          "name": "",
          "type": "tuple[]"
        }
      ],
      "stateMutability": "view",
      "type": "function"
    },
    {
      "inputs": [],
      "name": "getTotalStudents",
      "outputs": [
        {
          "internalType": "uint256",
          "name": "",
          "type": "uint256"
        }
      ],
      "stateMutability": "view",
      "type": "function"
    },
    {
      "inputs": [
        {
          "internalType": "string",
          "name": "_srn",
          "type": "string"
        }
      ],
      "name": "isRegistered",
      "outputs": [
        {
          "internalType": "bool",
          "name": "",
          "type": "bool"
        }
      ],
      "stateMutability": "view",
      "type": "function"
    }
  ],
  "bytecode": "0x608060405234801561001057600080fd5b50336000806101000a81548173ffffffffffffffffffffffffffffffffffffffff021916908373ffffffffffffffffffffffffffffffffffffffff1602179055506121dc806100606000396000f3fe608060405234801561001057600080fd5b50600436106100f45760003560e01c806355d8545611610097578063c6a6378b11610066578063c6a6378b146102af578063c7ef6bfb146102df578063c822d7f014610311578063da15fb6e14610341576100f4565b806355d854561461020f57806377c75b61146102435780638da5cb5b14610261578063b6c5ee5b1461027f576100f4565b80630e66a3eb116100d35780630e66a3eb1461017557806328bcb51a146101a55780632d175a18146101c35780633237e5e8146101f3576100f4565b80627a2f5e146100f95780630920ca9c146101295780630a1b776c14610159575b600080fd5b610113600480360381019061010e9190611610565b610371565b6040516101209190611e75565b60405180910390f35b610143600480360381019061013e91906116bd565b61039f565b6040516101509190611c6f565b60405180910390f35b610173600480360381019061016e9190611651565b61041d565b005b61018f600480360381019061018a9190611610565b61062c565b60405161019c9190611e75565b60405180910390f35b6101ad6106b3565b6040516101ba9190611e75565b60405180910390f35b6101dd60048036038101906101d89190611610565b6106c0565b6040516101ea9190611c4d565b60405180910390f35b61020d60048036038101906102089190611754565b610918565b005b61022960048036038101906102249190611817565b610d1a565b60405161023a959493929190611d6d565b60405180910390f35b61024b610f28565b6040516102589190611e75565b60405180910390f35b610269610f2e565b6040516102769190611c32565b60405180910390f35b6102996004803603810190610294919061186b565b610f52565b6040516102a69190611c8a565b60405180910390f35b6102c960048036038101906102c49190611651565b610ffe565b6040516102d69190611e75565b60405180910390f35b6102f960048036038101906102f49190611610565b6112ec565b60405161030893929190611ce3565b60405180910390f35b61032b60048036038101906103269190611610565b611449565b6040516103389190611c6f565b60405180910390f35b61035b600480360381019061035691906116bd565b611481565b6040516103689190611c6f565b60405180910390f35b6004818051602081018201805184825260208301602085012081835280955050505050506000915090505481565b6003838051602081018201805184825260208301602085012081835280955050505050508280516020810182018051848252602083016020850120818352809550505050505081805160208101820180518482526020830160208501208183528095505050505050600092509250509054906101000a900460ff1681565b60008054906101000a900473ffffffffffffffffffffffffffffffffffffffff1673ffffffffffffffffffffffffffffffffffffffff163373ffffffffffffffffffffffffffffffffffffffff16146104ab576040517f08c379a00000000000000000000000000000000000000000000000000000000081526004016104a290611e55565b60405180910390fd5b6001826040516104bb9190611c1b565b908152602001604051809103902060020160009054906101000a900460ff161561051a576040517f08c379a000000000000000000000000000000000000000000000000000000000815260040161051190611e35565b60405180910390fd5b6040518060600160405280828152602001838152602001600115158152506001836040516105489190611c1b565b908152602001604051809103902060008201518160000190805190602001906105729291906114f0565b50602082015181600101908051906020019061058f9291906114f0565b5060408201518160020160006101000a81548160ff0219169083151502179055509050506005829080600181540180825580915050600190039060005260206000200160009091909190915090805190602001906105ee9291906114f0565b507f99de9e27b7501a37ca6980ff5a350f85ee64d5242f63c8db6354390ff1bf37798282604051610620929190611cac565b60405180910390a15050565b60008060048360405161063f9190611c1b565b908152602001604051809103902054141561065d57600090506106ae565b6000610a8c6004846040516106729190611c1b565b90815260200160405180910390205461068b9190611f62565b905080421061069e5760009150506106ae565b42816106aa9190611fb8565b9150505b919050565b6000600580549050905090565b60606002826040516106d29190611c1b565b9081526020016040518091039020805480602002602001604051908101604052809291908181526020016000905b8282101561090d57838290600052602060002090600502016040518060a001604052908160008201805461073390612076565b80601f016020809104026020016040519081016040528092919081815260200182805461075f90612076565b80156107ac5780601f10610781576101008083540402835291602001916107ac565b820191906000526020600020905b81548152906001019060200180831161078f57829003601f168201915b505050505081526020016001820180546107c590612076565b80601f01602080910402602001604051908101604052809291908181526020018280546107f190612076565b801561083e5780601f106108135761010080835404028352916020019161083e565b820191906000526020600020905b81548152906001019060200180831161082157829003601f168201915b50505050508152602001600282015481526020016003820160009054906101000a900460ff1615151515815260200160048201805461087c90612076565b80601f01602080910402602001604051908101604052809291908181526020018280546108a890612076565b80156108f55780601f106108ca576101008083540402835291602001916108f5565b820191906000526020600020905b8154815290600101906020018083116108d857829003601f168201915b50505050508152505081526020019060010190610700565b505050509050919050565b60008054906101000a900473ffffffffffffffffffffffffffffffffffffffff1673ffffffffffffffffffffffffffffffffffffffff163373ffffffffffffffffffffffffffffffffffffffff16146109a6576040517f08c379a000000000000000000000000000000000000000000000000000000000815260040161099d90611e55565b60405180910390fd5b6001846040516109b69190611c1b565b908152602001604051809103902060020160009054906101000a900460ff16610a14576040517f08c379a0000000000000000000000000000000000000000000000000000000008152600401610a0b90611df5565b60405180910390fd5b600384604051610a249190611c1b565b908152602001604051809103902083604051610a409190611c1b565b908152602001604051809103902082604051610a5c9190611c1b565b908152602001604051809103902060009054906101000a900460ff1615610ab8576040517f08c379a0000000000000000000000000000000000000000000000000000000008152600401610aaf90611dd5565b60405180910390fd5b6000600485604051610aca9190611c1b565b90815260200160405180910390205414610b4d57610a8c600485604051610af19190611c1b565b908152602001604051809103902054610b0a9190611f62565b421015610b4c576040517f08c379a0000000000000000000000000000000000000000000000000000000008152600401610b4390611e15565b60405180910390fd5b5b6001600385604051610b5f9190611c1b565b908152602001604051809103902084604051610b7b9190611c1b565b908152602001604051809103902083604051610b979190611c1b565b908152602001604051809103902060006101000a81548160ff02191690831515021790555042600485604051610bcd9190611c1b565b90815260200160405180910390208190555060006040518060a00160405280868152602001858152602001428152602001600115158152602001838152509050600285604051610c1d9190611c1b565b90815260200160405180910390208190806001815401808255809150506001900390600052602060002090600502016000909190919091506000820151816000019080519060200190610c719291906114f0565b506020820151816001019080519060200190610c8e9291906114f0565b506040820151816002015560608201518160030160006101000a81548160ff0219169083151502179055506080820151816004019080519060200190610cd59291906114f0565b5050507fa89e94d4b35faef39829e8e0e062cffa13b7e7c9e2dd51365da1e475c561b14e858542604051610d0b93929190611d28565b60405180910390a15050505050565b6002828051602081018201805184825260208301602085012081835280955050505050508181548110610d4c57600080fd5b906000526020600020906005020160009150915050806000018054610d7090612076565b80601f0160208091040260200160405190810160405280929190818152602001828054610d9c90612076565b8015610de95780601f10610dbe57610100808354040283529160200191610de9565b820191906000526020600020905b815481529060010190602001808311610dcc57829003601f168201915b505050505090806001018054610dfe90612076565b80601f0160208091040260200160405190810160405280929190818152602001828054610e2a90612076565b8015610e775780601f10610e4c57610100808354040283529160200191610e77565b820191906000526020600020905b815481529060010190602001808311610e5a57829003601f168201915b5050505050908060020154908060030160009054906101000a900460ff1690806004018054610ea590612076565b80601f0160208091040260200160405190810160405280929190818152602001828054610ed190612076565b8015610f1e5780601f10610ef357610100808354040283529160200191610f1e565b820191906000526020600020905b815481529060010190602001808311610f0157829003601f168201915b5050505050905085565b610a8c81565b60008054906101000a900473ffffffffffffffffffffffffffffffffffffffff1681565b60058181548110610f6257600080fd5b906000526020600020016000915090508054610f7d90612076565b80601f0160208091040260200160405190810160405280929190818152602001828054610fa990612076565b8015610ff65780601f10610fcb57610100808354040283529160200191610ff6565b820191906000526020600020905b815481529060010190602001808311610fd957829003601f168201915b505050505081565b6000806000905060006002856040516110179190611c1b565b9081526020016040518091039020805480602002602001604051908101604052809291908181526020016000905b8282101561125257838290600052602060002090600502016040518060a001604052908160008201805461107890612076565b80601f01602080910402602001604051908101604052809291908181526020018280546110a490612076565b80156110f15780601f106110c6576101008083540402835291602001916110f1565b820191906000526020600020905b8154815290600101906020018083116110d457829003601f168201915b5050505050815260200160018201805461110a90612076565b80601f016020809104026020016040519081016040528092919081815260200182805461113690612076565b80156111835780601f1061115857610100808354040283529160200191611183565b820191906000526020600020905b81548152906001019060200180831161116657829003601f168201915b50505050508152602001600282015481526020016003820160009054906101000a900460ff161515151581526020016004820180546111c190612076565b80601f01602080910402602001604051908101604052809291908181526020018280546111ed90612076565b801561123a5780601f1061120f5761010080835404028352916020019161123a565b820191906000526020600020905b81548152906001019060200180831161121d57829003601f168201915b50505050508152505081526020019060010190611045565b50505050905060005b81518110156112e05784805190602001208282815181106112a5577f4e487b7100000000000000000000000000000000000000000000000000000000600052603260045260246000fd5b6020026020010151602001518051906020012014156112cd5782806112c9906120a8565b9350505b80806112d8906120a8565b91505061125b565b50819250505092915050565b60018180516020810182018051848252602083016020850120818352809550505050505060009150905080600001805461132590612076565b80601f016020809104026020016040519081016040528092919081815260200182805461135190612076565b801561139e5780601f106113735761010080835404028352916020019161139e565b820191906000526020600020905b81548152906001019060200180831161138157829003601f168201915b5050505050908060010180546113b390612076565b80601f01602080910402602001604051908101604052809291908181526020018280546113df90612076565b801561142c5780601f106114015761010080835404028352916020019161142c565b820191906000526020600020905b81548152906001019060200180831161140f57829003601f168201915b5050505050908060020160009054906101000a900460ff16905083565b600060018260405161145b9190611c1b565b908152602001604051809103902060020160009054906101000a900460ff169050919050565b60006003846040516114939190611c1b565b9081526020016040518091039020836040516114af9190611c1b565b9081526020016040518091039020826040516114cb9190611c1b565b908152602001604051809103902060009054906101000a900460ff1690509392505050565b8280546114fc90612076565b90600052602060002090601f01602090048101928261151e5760008555611565565b82601f1061153757805160ff1916838001178555611565565b82800160010185558215611565579182015b82811115611564578251825591602001919060010190611549565b5b5090506115729190611576565b5090565b5b8082111561158f576000816000905550600101611577565b5090565b60006115a66115a184611ec1565b611e90565b9050828152602081018484840111156115be57600080fd5b6115c9848285612034565b509392505050565b600082601f8301126115e257600080fd5b81356115f2848260208601611593565b91505092915050565b60008135905061160a8161218f565b92915050565b60006020828403121561162257600080fd5b600082013567ffffffffffffffff81111561163c57600080fd5b611648848285016115d1565b91505092915050565b6000806040838503121561166457600080fd5b600083013567ffffffffffffffff81111561167e57600080fd5b61168a858286016115d1565b925050602083013567ffffffffffffffff8111156116a757600080fd5b6116b3858286016115d1565b9150509250929050565b6000806000606084860312156116d257600080fd5b600084013567ffffffffffffffff8111156116ec57600080fd5b6116f8868287016115d1565b935050602084013567ffffffffffffffff81111561171557600080fd5b611721868287016115d1565b925050604084013567ffffffffffffffff81111561173e57600080fd5b61174a868287016115d1565b9150509250925092565b6000806000806080858703121561176a57600080fd5b600085013567ffffffffffffffff81111561178457600080fd5b611790878288016115d1565b945050602085013567ffffffffffffffff8111156117ad57600080fd5b6117b9878288016115d1565b935050604085013567ffffffffffffffff8111156117d657600080fd5b6117e2878288016115d1565b925050606085013567ffffffffffffffff8111156117ff57600080fd5b61180b878288016115d1565b91505092959194509250565b6000806040838503121561182a57600080fd5b600083013567ffffffffffffffff81111561184457600080fd5b611850858286016115d1565b9250506020611861858286016115fb565b9150509250929050565b60006020828403121561187d57600080fd5b600061188b848285016115fb565b91505092915050565b60006118a08383611b79565b905092915050565b6118b181611fec565b82525050565b60006118c282611f01565b6118cc8185611f24565b9350836020820285016118de85611ef1565b8060005b8581101561191a57848403895281516118fb8582611894565b945061190683611f17565b925060208a019950506001810190506118e2565b50829750879550505050505092915050565b61193581611ffe565b82525050565b61194481611ffe565b82525050565b600061195582611f0c565b61195f8185611f35565b935061196f818560208601612043565b6119788161217e565b840191505092915050565b600061198e82611f0c565b6119988185611f46565b93506119a8818560208601612043565b6119b18161217e565b840191505092915050565b60006119c782611f0c565b6119d18185611f57565b93506119e1818560208601612043565b80840191505092915050565b60006119fa603083611f46565b91507f417474656e64616e636520616c7265616479206d61726b656420666f7220746860008301527f6973207375626a65637420746f646179000000000000000000000000000000006020830152604082019050919050565b6000611a60601683611f46565b91507f53747564656e74206e6f742072656769737465726564000000000000000000006000830152602082019050919050565b6000611aa0602a83611f46565b91507f546f6f20736f6f6e3a2077616974203435206d696e757465732062657477656560008301527f6e207375626a65637473000000000000000000000000000000000000000000006020830152604082019050919050565b6000611b06601a83611f46565b91507f53747564656e7420616c726561647920726567697374657265640000000000006000830152602082019050919050565b6000611b46601883611f46565b91507f4f6e6c79206f776e65722063616e2063616c6c207468697300000000000000006000830152602082019050919050565b600060a0830160008301518482036000860152611b96828261194a565b91505060208301518482036020860152611bb0828261194a565b9150506040830151611bc56040860182611bfd565b506060830151611bd8606086018261192c565b5060808301518482036080860152611bf0828261194a565b9150508091505092915050565b611c068161202a565b82525050565b611c158161202a565b82525050565b6000611c2782846119bc565b915081905092915050565b6000602082019050611c4760008301846118a8565b92915050565b60006020820190508181036000830152611c6781846118b7565b905092915050565b6000602082019050611c84600083018461193b565b92915050565b60006020820190508181036000830152611ca48184611983565b905092915050565b60006040820190508181036000830152611cc68185611983565b90508181036020830152611cda8184611983565b90509392505050565b60006060820190508181036000830152611cfd8186611983565b90508181036020830152611d118185611983565b9050611d20604083018461193b565b949350505050565b60006060820190508181036000830152611d428186611983565b90508181036020830152611d568185611983565b9050611d656040830184611c0c565b949350505050565b600060a0820190508181036000830152611d878188611983565b90508181036020830152611d9b8187611983565b9050611daa6040830186611c0c565b611db7606083018561193b565b8181036080830152611dc98184611983565b90509695505050505050565b60006020820190508181036000830152611dee816119ed565b9050919050565b60006020820190508181036000830152611e0e81611a53565b9050919050565b60006020820190508181036000830152611e2e81611a93565b9050919050565b60006020820190508181036000830152611e4e81611af9565b9050919050565b60006020820190508181036000830152611e6e81611b39565b9050919050565b6000602082019050611e8a6000830184611c0c565b92915050565b6000604051905081810181811067ffffffffffffffff82111715611eb757611eb661214f565b5b8060405250919050565b600067ffffffffffffffff821115611edc57611edb61214f565b5b601f19601f8301169050602081019050919050565b6000819050602082019050919050565b600081519050919050565b600081519050919050565b6000602082019050919050565b600082825260208201905092915050565b600082825260208201905092915050565b600082825260208201905092915050565b600081905092915050565b6000611f6d8261202a565b9150611f788361202a565b9250827fffffffffffffffffffffffffffffffffffffffffffffffffffffffffffffffff03821115611fad57611fac6120f1565b5b828201905092915050565b6000611fc38261202a565b9150611fce8361202a565b925082821015611fe157611fe06120f1565b5b828203905092915050565b6000611ff78261200a565b9050919050565b60008115159050919050565b600073ffffffffffffffffffffffffffffffffffffffff82169050919050565b6000819050919050565b82818337600083830152505050565b60005b83811015612061578082015181840152602081019050612046565b83811115612070576000848401525b50505050565b6000600282049050600182168061208e57607f821691505b602082108114156120a2576120a1612120565b5b50919050565b60006120b38261202a565b91507fffffffffffffffffffffffffffffffffffffffffffffffffffffffffffffffff8214156120e6576120e56120f1565b5b600182019050919050565b7f4e487b7100000000000000000000000000000000000000000000000000000000600052601160045260246000fd5b7f4e487b7100000000000000000000000000000000000000000000000000000000600052602260045260246000fd5b7f4e487b7100000000000000000000000000000000000000000000000000000000600052604160045260246000fd5b6000601f19601f8301169050919050565b6121988161202a565b81146121a357600080fd5b5056fea2646970667358221220dfca0b82d600b94da6cac8ba85ca3976bde6fcd0b1113cd0c4f3ac504e2dc51e64736f6c63430008000033",
  "immutableReferences": {},
  "source": "// SPDX-License-Identifier: MIT\r\npragma solidity ^0.8.0;\r\n\r\ncontract Attendance {\r\n\r\n    address public owner;\r\n\r\n    struct Student {\r\n        string name;\r\n        string srn;\r\n        bool registered;\r\n    }\r\n\r\n    struct AttendanceRecord {\r\n        string srn;\r\n        string subject;\r\n        uint256 timestamp;\r\n        bool present;\r\n        string locationHash;\r\n    }\r\n\r\n    // SRN => Student\r\n    mapping(string => Student) public students;\r\n\r\n    // SRN => list of attendance records\r\n    mapping(string => AttendanceRecord[]) public attendanceRecords;\r\n\r\n    // Duplicate check: SRN => subject => date => already marked?\r\n    mapping(string => mapping(string => mapping(string => bool))) public alreadyMarked;\r\n\r\n    // Last marked timestamp for any subject: SRN => timestamp\r\n    mapping(string => uint256) public lastMarkedTime;\r\n\r\n    // 45 minutes in seconds\r\n    uint256 public constant MIN_GAP = 45 * 60;\r\n\r\n    // All registered SRNs\r\n    string[] public allSRNs;\r\n\r\n    // Events\r\n    event StudentRegistered(string srn, string name);\r\n    event AttendanceMarked(string srn, string subject, uint256 timestamp);\r\n\r\n    modifier onlyOwner() {\r\n        require(msg.sender == owner, \"Only owner can call this\");\r\n        _;\r\n    }\r\n\r\n    constructor() {\r\n        owner = msg.sender;\r\n    }\r\n\r\n    // Register a new student\r\n    function registerStudent(string memory _srn, string memory _name) public onlyOwner {\r\n        require(!students[_srn].registered, \"Student already registered\");\r\n        students[_srn] = Student(_name, _srn, true);\r\n        allSRNs.push(_srn);\r\n        emit StudentRegistered(_srn, _name);\r\n    }\r\n\r\n    // Mark attendance with duplicate + 45 min gap check\r\n    function markAttendance(\r\n        string memory _srn,\r\n        string memory _subject,\r\n        string memory _date,\r\n        string memory _locationHash\r\n    ) public onlyOwner {\r\n        require(students[_srn].registered, \"Student not registered\");\r\n\r\n        // Check: same subject same day duplicate\r\n        require(\r\n            !alreadyMarked[_srn][_subject][_date],\r\n            \"Attendance already marked for this subject today\"\r\n        );\r\n\r\n        // Check: 45 min gap from last attendance in ANY subject\r\n        if (lastMarkedTime[_srn] != 0) {\r\n            require(\r\n                block.timestamp >= lastMarkedTime[_srn] + MIN_GAP,\r\n                \"Too soon: wait 45 minutes between subjects\"\r\n            );\r\n        }\r\n\r\n        alreadyMarked[_srn][_subject][_date] = true;\r\n        lastMarkedTime[_srn] = block.timestamp;\r\n\r\n        AttendanceRecord memory record = AttendanceRecord({\r\n            srn: _srn,\r\n            subject: _subject,\r\n            timestamp: block.timestamp,\r\n            present: true,\r\n            locationHash: _locationHash\r\n        });\r\n        attendanceRecords[_srn].push(record);\r\n        emit AttendanceMarked(_srn, _subject, block.timestamp);\r\n    }\r\n\r\n    // Check duplicate for today\r\n    function hasMarkedToday(\r\n        string memory _srn,\r\n        string memory _subject,\r\n        string memory _date\r\n    ) public view returns (bool) {\r\n        return alreadyMarked[_srn][_subject][_date];\r\n    }\r\n\r\n    // Get seconds remaining before student can be marked again (0 = can mark now)\r\n    function timeUntilNextMark(string memory _srn) public view returns (uint256) {\r\n        if (lastMarkedTime[_srn] == 0) return 0;\r\n        uint256 nextAllowed = lastMarkedTime[_srn] + MIN_GAP;\r\n        if (block.timestamp >= nextAllowed) return 0;\r\n        return nextAllowed - block.timestamp;\r\n    }\r\n\r\n    // Get total attendance count for a student in a subject\r\n    function getAttendanceCount(string memory _srn, string memory _subject)\r\n        public view returns (uint256)\r\n    {\r\n        uint256 count = 0;\r\n        AttendanceRecord[] memory records = attendanceRecords[_srn];\r\n        for (uint i = 0; i < records.length; i++) {\r\n            if (keccak256(bytes(records[i].subject)) == keccak256(bytes(_subject))) {\r\n                count++;\r\n            }\r\n        }\r\n        return count;\r\n    }\r\n\r\n    // Get all attendance records for a student\r\n    function getStudentRecords(string memory _srn)\r\n        public view returns (AttendanceRecord[] memory)\r\n    {\r\n        return attendanceRecords[_srn];\r\n    }\r\n\r\n    // Get total number of registered students\r\n    function getTotalStudents() public view returns (uint256) {\r\n        return allSRNs.length;\r\n    }\r\n\r\n    // Check if student is registered\r\n    function isRegistered(string memory _srn) public view returns (bool) {\r\n        return students[_srn].registered;\r\n    }\r\n}\r\n",
  "sourcePath": "C:\\Users\\akhil\\OneDrive\\Desktop\\project\\blockchain_attendance\\blockchain\\contracts\\attendance.sol",
  "compiler": {
    "name": "solc",
    "version": "0.8.0+commit.c7dfd78e.Emscripten.clang"
  },
  "schemaVersion": "3.4.16",
  "updatedAt": "2026-05-31T11:41:47.263Z",
  "devdoc": {
    "kind": "dev",
    "methods": {},
    "version": 1
  },
  "userdoc": {
    "kind": "user",
    "methods": {},
    "version": 1
  }
}